{
  "_format": "hh-sol-artifact-1",
  "contractName": "WalmartGiftCardNFT",
  "sourceName": "contracts/walmartgiftcardnft.sol",
  "abi": [
    {
      "inputs": [
        {
          "internalType": "address",
          "name": "_admin",
          "type": "address"
        },
        {
          "internalType": "address",
          "name": "_initialOwner",
          "type": "address"
        }
      ],
      "stateMutability": "nonpayable",
      "type": "constructor"
    },
    {
      "inputs": [
        {
          "internalType": "address",
          "name": "sender",
          "type": "address"
        },
        {
          "internalType": "uint256",
          "name": "tokenId",
          "type": "uint256"
        },
        {
          "internalType": "address",
          "name": "owner",
          "type": "address"
        }
      ],
      "name": "ERC721IncorrectOwner",
      "type": "error"
    },
    {
      "inputs": [
        {
          "internalType": "address",
          "name": "operator",
          "type": "address"
        },
        {
          "internalType": "uint256",
          "name": "tokenId",
          "type": "uint256"
        }
      ],
      "name": "ERC721InsufficientApproval",
      "type": "error"
    },
    {
      "inputs": [
        {
          "internalType": "address",
          "name": "approver",
          "type": "address"
        }
      ],
      "name": "ERC721InvalidApprover",
      "type": "error"
    },
    {
      "inputs": [
        {
          "internalType": "address",
          "name": "operator",
          "type": "address"
        }
      ],
      "name": "ERC721InvalidOperator",
      "type": "error"
    },
    {
      "inputs": [
        {
          "internalType": "address",
          "name": "owner",
          "type": "address"
        }
      ],
      "name": "ERC721InvalidOwner",
      "type": "error"
    },
    {
      "inputs": [
        {
          "internalType": "address",
          "name": "receiver",
          "type": "address"
        }
      ],
      "name": "ERC721InvalidReceiver",
      "type": "error"
    },
    {
      "inputs": [
        {
          "internalType": "address",
          "name": "sender",
          "type": "address"
        }
      ],
      "name": "ERC721InvalidSender",
      "type": "error"
    },
    {
      "inputs": [
        {
          "internalType": "uint256",
          "name": "tokenId",
          "type": "uint256"
        }
      ],
      "name": "ERC721NonexistentToken",
      "type": "error"
    },
    {
      "inputs": [
        {
          "internalType": "address",
          "name": "owner",
          "type": "address"
        }
      ],
      "name": "OwnableInvalidOwner",
      "type": "error"
    },
    {
      "inputs": [
        {
          "internalType": "address",
          "name": "account",
          "type": "address"
        }
      ],
      "name": "OwnableUnauthorizedAccount",
      "type": "error"
    },
    {
      "anonymous": false,
      "inputs": [
        {
          "indexed": true,
          "internalType": "address",
          "name": "owner",
          "type": "address"
        },
        {
          "indexed": true,
          "internalType": "address",
          "name": "approved",
          "type": "address"
        },
        {
          "indexed": true,
          "internalType": "uint256",
          "name": "tokenId",
          "type": "uint256"
        }
      ],
      "name": "Approval",
      "type": "event"
    },
    {
      "anonymous": false,
      "inputs": [
        {
          "indexed": true,
          "internalType": "address",
          "name": "owner",
          "type": "address"
        },
        {
          "indexed": true,
          "internalType": "address",
          "name": "operator",
          "type": "address"
        },
        {
          "indexed": false,
          "internalType": "bool",
          "name": "approved",
          "type": "bool"
        }
      ],
      "name": "ApprovalForAll",
      "type": "event"
    },
    {
      "anonymous": false,
      "inputs": [
        {
          "indexed": false,
          "internalType": "uint256",
          "name": "_fromTokenId",
          "type": "uint256"
        },
        {
          "indexed": false,
          "internalType": "uint256",
          "name": "_toTokenId",
          "type": "uint256"
        }
      ],
      "name": "BatchMetadataUpdate",
      "type": "event"
    },
    {
      "anonymous": false,
      "inputs": [
        {
          "indexed": true,
          "internalType": "address",
          "name": "to",
          "type": "address"
        },
        {
          "indexed": true,
          "internalType": "uint256",
          "name": "tokenId",
          "type": "uint256"
        },
        {
          "indexed": false,
          "internalType": "uint256",
          "name": "amount",
          "type": "uint256"
        },
        {
          "indexed": false,
          "internalType": "uint256",
          "name": "expiry",
          "type": "uint256"
        }
      ],
      "name": "GiftCardMinted",
      "type": "event"
    },
    {
      "anonymous": false,
      "inputs": [
        {
          "indexed": true,
          "internalType": "address",
          "name": "from",
          "type": "address"
        },
        {
          "indexed": true,
          "internalType": "uint256",
          "name": "tokenId",
          "type": "uint256"
        },
        {
          "indexed": false,
          "internalType": "uint256",
          "name": "amount",
          "type": "uint256"
        }
      ],
      "name": "GiftCardRedeemed",
      "type": "event"
    },
    {
      "anonymous": false,
      "inputs": [
        {
          "indexed": false,
          "internalType": "uint256",
          "name": "_tokenId",
          "type": "uint256"
        }
      ],
      "name": "MetadataUpdate",
      "type": "event"
    },
    {
      "anonymous": false,
      "inputs": [
        {
          "indexed": true,
          "internalType": "address",
          "name": "previousOwner",
          "type": "address"
        },
        {
          "indexed": true,
          "internalType": "address",
          "name": "newOwner",
          "type": "address"
        }
      ],
      "name": "OwnershipTransferred",
      "type": "event"
    },
    {
      "anonymous": false,
      "inputs": [
        {
          "indexed": true,
          "internalType": "address",
          "name": "from",
          "type": "address"
        },
        {
          "indexed": true,
          "internalType": "address",
          "name": "to",
          "type": "address"
        },
        {
          "indexed": true,
          "internalType": "uint256",
          "name": "tokenId",
          "type": "uint256"
        }
      ],
      "name": "Transfer",
      "type": "event"
    },
    {
      "inputs": [
        {
          "internalType": "address",
          "name": "to",
          "type": "address"
        },
        {
          "internalType": "uint256",
          "name": "tokenId",
          "type": "uint256"
        }
      ],
      "name": "approve",
      "outputs": [],
      "stateMutability": "nonpayable",
      "type": "function"
    },
    {
      "inputs": [
        {
          "internalType": "address",
          "name": "owner",
          "type": "address"
        }
      ],
      "name": "balanceOf",
      "outputs": [
        {
          "internalType": "uint256",
          "name": "",
          "type": "uint256"
        }
      ],
      "stateMutability": "view",
      "type": "function"
    },
    {
      "inputs": [
        {
          "internalType": "uint256",
          "name": "tokenId",
          "type": "uint256"
        }
      ],
      "name": "getApproved",
      "outputs": [
        {
          "internalType": "address",
          "name": "",
          "type": "address"
        }
      ],
      "stateMutability": "view",
      "type": "function"
    },
    {
      "inputs": [
        {
          "internalType": "uint256",
          "name": "",
          "type": "uint256"
        }
      ],
      "name": "giftCards",
      "outputs": [
        {
          "internalType": "uint256",
          "name": "balance",
          "type": "uint256"
        },
        {
          "internalType": "uint256",
          "name": "expiry",
          "type": "uint256"
        },
        {
          "internalType": "bool",
          "name": "redeemed",
          "type": "bool"
        }
      ],
      "stateMutability": "view",
      "type": "function"
    },
    {
      "inputs": [
        {
          "internalType": "address",
          "name": "owner",
          "type": "address"
        },
        {
          "internalType": "address",
          "name": "operator",
          "type": "address"
        }
      ],
      "name": "isApprovedForAll",
      "outputs": [
        {
          "internalType": "bool",
          "name": "",
          "type": "bool"
        }
      ],
      "stateMutability": "view",
      "type": "function"
    },
    {
      "inputs": [
        {
          "internalType": "address",
          "name": "to",
          "type": "address"
        },
        {
          "internalType": "uint256",
          "name": "preTokenId",
          "type": "uint256"
        },
        {
          "internalType": "uint256",
          "name": "amount",
          "type": "uint256"
        },
        {
          "internalType": "uint256",
          "name": "expiry",
          "type": "uint256"
        }
      ],
      "name": "mintNFT",
      "outputs": [],
      "stateMutability": "nonpayable",
      "type": "function"
    },
    {
      "inputs": [],
      "name": "name",
      "outputs": [
        {
          "internalType": "string",
          "name": "",
          "type": "string"
        }
      ],
      "stateMutability": "view",
      "type": "function"
    },
    {
      "inputs": [],
      "name": "owner",
      "outputs": [
        {
          "internalType": "address",
          "name": "",
          "type": "address"
        }
      ],
      "stateMutability": "view",
      "type": "function"
    },
    {
      "inputs": [
        {
          "internalType": "uint256",
          "name": "tokenId",
          "type": "uint256"
        }
      ],
      "name": "ownerOf",
      "outputs": [
        {
          "internalType": "address",
          "name": "",
          "type": "address"
        }
      ],
      "stateMutability": "view",
      "type": "function"
    },
    {
      "inputs": [
        {
          "internalType": "uint256",
          "name": "tokenId",
          "type": "uint256"
        },
        {
          "internalType": "uint256",
          "name": "amount",
          "type": "uint256"
        }
      ],
      "name": "redeem",
      "outputs": [],
      "stateMutability": "nonpayable",
      "type": "function"
    },
    {
      "inputs": [],
      "name": "renounceOwnership",
      "outputs": [],
      "stateMutability": "nonpayable",
      "type": "function"
    },
    {
      "inputs": [
        {
          "internalType": "address",
          "name": "from",
          "type": "address"
        },
        {
          "internalType": "address",
          "name": "to",
          "type": "address"
        },
        {
          "internalType": "uint256",
          "name": "tokenId",
          "type": "uint256"
        }
      ],
      "name": "safeTransferFrom",
      "outputs": [],
      "stateMutability": "nonpayable",
      "type": "function"
    },
    {
      "inputs": [
        {
          "internalType": "address",
          "name": "from",
          "type": "address"
        },
        {
          "internalType": "address",
          "name": "to",
          "type": "address"
        },
        {
          "internalType": "uint256",
          "name": "tokenId",
          "type": "uint256"
        },
        {
          "internalType": "bytes",
          "name": "data",
          "type": "bytes"
        }
      ],
      "name": "safeTransferFrom",
      "outputs": [],
      "stateMutability": "nonpayable",
      "type": "function"
    },
    {
      "inputs": [
        {
          "internalType": "address",
          "name": "_admin",
          "type": "address"
        }
      ],
      "name": "setAdmin",
      "outputs": [],
      "stateMutability": "nonpayable",
      "type": "function"
    },
    {
      "inputs": [
        {
          "internalType": "address",
          "name": "operator",
          "type": "address"
        },
        {
          "internalType": "bool",
          "name": "approved",
          "type": "bool"
        }
      ],
      "name": "setApprovalForAll",
      "outputs": [],
      "stateMutability": "nonpayable",
      "type": "function"
    },
    {
      "inputs": [
        {
          "internalType": "bytes4",
          "name": "interfaceId",
          "type": "bytes4"
        }
      ],
      "name": "supportsInterface",
      "outputs": [
        {
          "internalType": "bool",
          "name": "",
          "type": "bool"
        }
      ],
      "stateMutability": "view",
      "type": "function"
    },
    {
      "inputs": [],
      "name": "symbol",
      "outputs": [
        {
          "internalType": "string",
          "name": "",
          "type": "string"
        }
      ],
      "stateMutability": "view",
      "type": "function"
    },
    {
      "inputs": [
        {
          "internalType": "uint256",
          "name": "tokenId",
          "type": "uint256"
        }
      ],
      "name": "tokenURI",
      "outputs": [
        {
          "internalType": "string",
          "name": "",
          "type": "string"
        }
      ],
      "stateMutability": "view",
      "type": "function"
    },
    {
      "inputs": [
        {
          "internalType": "address",
          "name": "from",
          "type": "address"
        },
        {
          "internalType": "address",
          "name": "to",
          "type": "address"
        },
        {
          "internalType": "uint256",
          "name": "tokenId",
          "type": "uint256"
        }
      ],
      "name": "transferFrom",
      "outputs": [],
      "stateMutability": "nonpayable",
      "type": "function"
    },
    {
      "inputs": [
        {
          "internalType": "address",
          "name": "newOwner",
          "type": "address"
        }
      ],
      "name": "transferOwnership",
      "outputs": [],
      "stateMutability": "nonpayable",
      "type": "function"
    },
    {
      "inputs": [
        {
          "internalType": "uint256",
          "name": "",
          "type": "uint256"
        }
      ],
      "name": "usedPreTokenIds",
      "outputs": [
        {
          "internalType": "bool",
          "name": "",
          "type": "bool"
        }
      ],
      "stateMutability": "view",
      "type": "function"
    },
    {
      "inputs": [],
      "name": "walmartAdmin",
      "outputs": [
        {
          "internalType": "address",
          "name": "",
          "type": "address"
        }
      ],
      "stateMutability": "view",
      "type": "function"
    }
  ],
  "bytecode": "0x60806040523480156200001157600080fd5b50604051620032af380380620032af8339818101604052810190620000379190620002ca565b806040518060400160405280600f81526020017f57616c6d617274476966744361726400000000000000000000000000000000008152506040518060400160405280600381526020017f57474300000000000000000000000000000000000000000000000000000000008152508160009081620000b591906200058b565b508060019081620000c791906200058b565b505050600073ffffffffffffffffffffffffffffffffffffffff168173ffffffffffffffffffffffffffffffffffffffff16036200013f5760006040517f1e4fbdf700000000000000000000000000000000000000000000000000000000815260040162000136919062000683565b60405180910390fd5b62000150816200019a60201b60201c565b5081600a60006101000a81548173ffffffffffffffffffffffffffffffffffffffff021916908373ffffffffffffffffffffffffffffffffffffffff1602179055505050620006a0565b6000600760009054906101000a900473ffffffffffffffffffffffffffffffffffffffff16905081600760006101000a81548173ffffffffffffffffffffffffffffffffffffffff021916908373ffffffffffffffffffffffffffffffffffffffff1602179055508173ffffffffffffffffffffffffffffffffffffffff168173ffffffffffffffffffffffffffffffffffffffff167f8be0079c531659141344cd1fd0a4f28419497f9722a3daafe3b4186f6b6457e060405160405180910390a35050565b600080fd5b600073ffffffffffffffffffffffffffffffffffffffff82169050919050565b6000620002928262000265565b9050919050565b620002a48162000285565b8114620002b057600080fd5b50565b600081519050620002c48162000299565b92915050565b60008060408385031215620002e457620002e362000260565b5b6000620002f485828601620002b3565b92505060206200030785828601620002b3565b9150509250929050565b600081519050919050565b7f4e487b7100000000000000000000000000000000000000000000000000000000600052604160045260246000fd5b7f4e487b7100000000000000000000000000000000000000000000000000000000600052602260045260246000fd5b600060028204905060018216806200039357607f821691505b602082108103620003a957620003a86200034b565b5b50919050565b60008190508160005260206000209050919050565b60006020601f8301049050919050565b600082821b905092915050565b600060088302620004137fffffffffffffffffffffffffffffffffffffffffffffffffffffffffffffffff82620003d4565b6200041f8683620003d4565b95508019841693508086168417925050509392505050565b6000819050919050565b6000819050919050565b60006200046c62000466620004608462000437565b62000441565b62000437565b9050919050565b6000819050919050565b62000488836200044b565b620004a0620004978262000473565b848454620003e1565b825550505050565b600090565b620004b7620004a8565b620004c48184846200047d565b505050565b5b81811015620004ec57620004e0600082620004ad565b600181019050620004ca565b5050565b601f8211156200053b576200050581620003af565b6200051084620003c4565b8101602085101562000520578190505b620005386200052f85620003c4565b830182620004c9565b50505b505050565b600082821c905092915050565b6000620005606000198460080262000540565b1980831691505092915050565b60006200057b83836200054d565b9150826002028217905092915050565b620005968262000311565b67ffffffffffffffff811115620005b257620005b16200031c565b5b620005be82546200037a565b620005cb828285620004f0565b600060209050601f831160018114620006035760008415620005ee578287015190505b620005fa85826200056d565b8655506200066a565b601f1984166200061386620003af565b60005b828110156200063d5784890151825560018201915060208501945060208101905062000616565b868310156200065d578489015162000659601f8916826200054d565b8355505b6001600288020188555050505b505050505050565b6200067d8162000285565b82525050565b60006020820190506200069a600083018462000672565b92915050565b612bff80620006b06000396000f3fe608060405234801561001057600080fd5b50600436106101425760003560e01c8063715018a6116100b8578063a22cb4651161007c578063a22cb46514610377578063b88d4fde14610393578063bcee96af146103af578063c87b56dd146103cb578063e985e9c5146103fb578063f2fde38b1461042b57610142565b8063715018a6146102e35780637cbc2373146102ed5780638da5cb5b1461030957806395d89b41146103275780639898135f1461034557610142565b8063102bdbb01161010a578063102bdbb0146101ff57806323b872dd1461022f57806342842e0e1461024b5780636352211e14610267578063704b6c021461029757806370a08231146102b357610142565b806301ffc9a71461014757806306fdde0314610177578063081812fc14610195578063095ea7b3146101c55780630a27cd43146101e1575b600080fd5b610161600480360381019061015c9190612057565b610447565b60405161016e919061209f565b60405180910390f35b61017f6104a8565b60405161018c919061214a565b60405180910390f35b6101af60048036038101906101aa91906121a2565b61053a565b6040516101bc9190612210565b60405180910390f35b6101df60048036038101906101da9190612257565b610556565b005b6101e961056c565b6040516101f69190612210565b60405180910390f35b610219600480360381019061021491906121a2565b610592565b604051610226919061209f565b60405180910390f35b61024960048036038101906102449190612297565b6105b2565b005b61026560048036038101906102609190612297565b6106b4565b005b610281600480360381019061027c91906121a2565b6106d4565b60405161028e9190612210565b60405180910390f35b6102b160048036038101906102ac91906122ea565b6106e6565b005b6102cd60048036038101906102c891906122ea565b610732565b6040516102da9190612326565b60405180910390f35b6102eb6107ec565b005b61030760048036038101906103029190612341565b610800565b005b610311610a0f565b60405161031e9190612210565b60405180910390f35b61032f610a39565b60405161033c919061214a565b60405180910390f35b61035f600480360381019061035a91906121a2565b610acb565b60405161036e93929190612381565b60405180910390f35b610391600480360381019061038c91906123e4565b610b02565b005b6103ad60048036038101906103a89190612559565b610b18565b005b6103c960048036038101906103c491906125dc565b610b3d565b005b6103e560048036038101906103e091906121a2565b610d23565b6040516103f2919061214a565b60405180910390f35b61041560048036038101906104109190612643565b610e36565b604051610422919061209f565b60405180910390f35b610445600480360381019061044091906122ea565b610eca565b005b6000634906490660e01b7bffffffffffffffffffffffffffffffffffffffffffffffffffffffff1916827bffffffffffffffffffffffffffffffffffffffffffffffffffffffff191614806104a157506104a082610f50565b5b9050919050565b6060600080546104b7906126b2565b80601f01602080910402602001604051908101604052809291908181526020018280546104e3906126b2565b80156105305780601f1061050557610100808354040283529160200191610530565b820191906000526020600020905b81548152906001019060200180831161051357829003601f168201915b5050505050905090565b600061054582611032565b5061054f826110ba565b9050919050565b61056882826105636110f7565b6110ff565b5050565b600a60009054906101000a900473ffffffffffffffffffffffffffffffffffffffff1681565b60096020528060005260406000206000915054906101000a900460ff1681565b600073ffffffffffffffffffffffffffffffffffffffff168273ffffffffffffffffffffffffffffffffffffffff16036106245760006040517f64a0ae9200000000000000000000000000000000000000000000000000000000815260040161061b9190612210565b60405180910390fd5b600061063883836106336110f7565b611111565b90508373ffffffffffffffffffffffffffffffffffffffff168173ffffffffffffffffffffffffffffffffffffffff16146106ae578382826040517f64283d7b0000000000000000000000000000000000000000000000000000000081526004016106a5939291906126e3565b60405180910390fd5b50505050565b6106cf83838360405180602001604052806000815250610b18565b505050565b60006106df82611032565b9050919050565b6106ee61132b565b80600a60006101000a81548173ffffffffffffffffffffffffffffffffffffffff021916908373ffffffffffffffffffffffffffffffffffffffff16021790555050565b60008073ffffffffffffffffffffffffffffffffffffffff168273ffffffffffffffffffffffffffffffffffffffff16036107a55760006040517f89c62b6400000000000000000000000000000000000000000000000000000000815260040161079c9190612210565b60405180910390fd5b600360008373ffffffffffffffffffffffffffffffffffffffff1673ffffffffffffffffffffffffffffffffffffffff168152602001908152602001600020549050919050565b6107f461132b565b6107fe60006113b2565b565b3373ffffffffffffffffffffffffffffffffffffffff16610820836106d4565b73ffffffffffffffffffffffffffffffffffffffff1614610876576040517f08c379a000000000000000000000000000000000000000000000000000000000815260040161086d90612766565b60405180910390fd5b60006008600084815260200190815260200160002090508060020160009054906101000a900460ff16156108df576040517f08c379a00000000000000000000000000000000000000000000000000000000081526004016108d6906127d2565b60405180910390fd5b8060010154421115610926576040517f08c379a000000000000000000000000000000000000000000000000000000000815260040161091d9061283e565b60405180910390fd5b818160000154101561096d576040517f08c379a0000000000000000000000000000000000000000000000000000000008152600401610964906128aa565b60405180910390fd5b8181600001600082825461098191906128f9565b9250508190555060008160000154036109bb5760018160020160006101000a81548160ff0219169083151502179055506109ba83611478565b5b823373ffffffffffffffffffffffffffffffffffffffff167ff978dc690a9d2f49045ceab871c81a658fc08e852b13eee6d1d30eeaa7f15ff384604051610a029190612326565b60405180910390a3505050565b6000600760009054906101000a900473ffffffffffffffffffffffffffffffffffffffff16905090565b606060018054610a48906126b2565b80601f0160208091040260200160405190810160405280929190818152602001828054610a74906126b2565b8015610ac15780601f10610a9657610100808354040283529160200191610ac1565b820191906000526020600020905b815481529060010190602001808311610aa457829003601f168201915b5050505050905090565b60086020528060005260406000206000915090508060000154908060010154908060020160009054906101000a900460ff16905083565b610b14610b0d6110f7565b83836114fe565b5050565b610b238484846105b2565b610b37610b2e6110f7565b8585858561166d565b50505050565b600a60009054906101000a900473ffffffffffffffffffffffffffffffffffffffff1673ffffffffffffffffffffffffffffffffffffffff163373ffffffffffffffffffffffffffffffffffffffff1614610bcd576040517f08c379a0000000000000000000000000000000000000000000000000000000008152600401610bc490612979565b60405180910390fd5b6009600084815260200190815260200160002060009054906101000a900460ff1615610c2e576040517f08c379a0000000000000000000000000000000000000000000000000000000008152600401610c25906129e5565b60405180910390fd5b60016009600085815260200190815260200160002060006101000a81548160ff021916908315150217905550610c64848461181e565b60405180606001604052808381526020018281526020016000151581525060086000858152602001908152602001600020600082015181600001556020820151816001015560408201518160020160006101000a81548160ff021916908315150217905550905050828473ffffffffffffffffffffffffffffffffffffffff167f3c46d6abd8ba1bd8c7ac6f819af528001e5f0032ae7c720cf30ccac1b7d14c778484604051610d15929190612a05565b60405180910390a350505050565b6060610d2e82611032565b506000600660008481526020019081526020016000208054610d4f906126b2565b80601f0160208091040260200160405190810160405280929190818152602001828054610d7b906126b2565b8015610dc85780601f10610d9d57610100808354040283529160200191610dc8565b820191906000526020600020905b815481529060010190602001808311610dab57829003601f168201915b505050505090506000610dd961183c565b90506000815103610dee578192505050610e31565b600082511115610e23578082604051602001610e0b929190612a6a565b60405160208183030381529060405292505050610e31565b610e2c84611853565b925050505b919050565b6000600560008473ffffffffffffffffffffffffffffffffffffffff1673ffffffffffffffffffffffffffffffffffffffff16815260200190815260200160002060008373ffffffffffffffffffffffffffffffffffffffff1673ffffffffffffffffffffffffffffffffffffffff16815260200190815260200160002060009054906101000a900460ff16905092915050565b610ed261132b565b600073ffffffffffffffffffffffffffffffffffffffff168173ffffffffffffffffffffffffffffffffffffffff1603610f445760006040517f1e4fbdf7000000000000000000000000000000000000000000000000000000008152600401610f3b9190612210565b60405180910390fd5b610f4d816113b2565b50565b60007f80ac58cd000000000000000000000000000000000000000000000000000000007bffffffffffffffffffffffffffffffffffffffffffffffffffffffff1916827bffffffffffffffffffffffffffffffffffffffffffffffffffffffff1916148061101b57507f5b5e139f000000000000000000000000000000000000000000000000000000007bffffffffffffffffffffffffffffffffffffffffffffffffffffffff1916827bffffffffffffffffffffffffffffffffffffffffffffffffffffffff1916145b8061102b575061102a826118bc565b5b9050919050565b60008061103e83611926565b9050600073ffffffffffffffffffffffffffffffffffffffff168173ffffffffffffffffffffffffffffffffffffffff16036110b157826040517f7e2732890000000000000000000000000000000000000000000000000000000081526004016110a89190612326565b60405180910390fd5b80915050919050565b60006004600083815260200190815260200160002060009054906101000a900473ffffffffffffffffffffffffffffffffffffffff169050919050565b600033905090565b61110c8383836001611963565b505050565b60008061111d84611926565b9050600073ffffffffffffffffffffffffffffffffffffffff168373ffffffffffffffffffffffffffffffffffffffff161461115f5761115e818486611b28565b5b600073ffffffffffffffffffffffffffffffffffffffff168173ffffffffffffffffffffffffffffffffffffffff16146111f0576111a1600085600080611963565b6001600360008373ffffffffffffffffffffffffffffffffffffffff1673ffffffffffffffffffffffffffffffffffffffff168152602001908152602001600020600082825403925050819055505b600073ffffffffffffffffffffffffffffffffffffffff168573ffffffffffffffffffffffffffffffffffffffff1614611273576001600360008773ffffffffffffffffffffffffffffffffffffffff1673ffffffffffffffffffffffffffffffffffffffff168152602001908152602001600020600082825401925050819055505b846002600086815260200190815260200160002060006101000a81548173ffffffffffffffffffffffffffffffffffffffff021916908373ffffffffffffffffffffffffffffffffffffffff160217905550838573ffffffffffffffffffffffffffffffffffffffff168273ffffffffffffffffffffffffffffffffffffffff167fddf252ad1be2c89b69c2b068fc378daa952ba7f163c4a11628f55a4df523b3ef60405160405180910390a4809150509392505050565b6113336110f7565b73ffffffffffffffffffffffffffffffffffffffff16611351610a0f565b73ffffffffffffffffffffffffffffffffffffffff16146113b0576113746110f7565b6040517f118cdaa70000000000000000000000000000000000000000000000000000000081526004016113a79190612210565b60405180910390fd5b565b6000600760009054906101000a900473ffffffffffffffffffffffffffffffffffffffff16905081600760006101000a81548173ffffffffffffffffffffffffffffffffffffffff021916908373ffffffffffffffffffffffffffffffffffffffff1602179055508173ffffffffffffffffffffffffffffffffffffffff168173ffffffffffffffffffffffffffffffffffffffff167f8be0079c531659141344cd1fd0a4f28419497f9722a3daafe3b4186f6b6457e060405160405180910390a35050565b60006114876000836000611111565b9050600073ffffffffffffffffffffffffffffffffffffffff168173ffffffffffffffffffffffffffffffffffffffff16036114fa57816040517f7e2732890000000000000000000000000000000000000000000000000000000081526004016114f19190612326565b60405180910390fd5b5050565b600073ffffffffffffffffffffffffffffffffffffffff168273ffffffffffffffffffffffffffffffffffffffff160361156f57816040517f5b08ba180000000000000000000000000000000000000000000000000000000081526004016115669190612210565b60405180910390fd5b80600560008573ffffffffffffffffffffffffffffffffffffffff1673ffffffffffffffffffffffffffffffffffffffff16815260200190815260200160002060008473ffffffffffffffffffffffffffffffffffffffff1673ffffffffffffffffffffffffffffffffffffffff16815260200190815260200160002060006101000a81548160ff0219169083151502179055508173ffffffffffffffffffffffffffffffffffffffff168373ffffffffffffffffffffffffffffffffffffffff167f17307eab39ab6107e8899845ad3d59bd9653f200f220920489ca2b5937696c3183604051611660919061209f565b60405180910390a3505050565b60008373ffffffffffffffffffffffffffffffffffffffff163b1115611817578273ffffffffffffffffffffffffffffffffffffffff1663150b7a02868685856040518563ffffffff1660e01b81526004016116cc9493929190612ae3565b6020604051808303816000875af192505050801561170857506040513d601f19601f820116820180604052508101906117059190612b44565b60015b61178c573d8060008114611738576040519150601f19603f3d011682016040523d82523d6000602084013e61173d565b606091505b50600081510361178457836040517f64a0ae9200000000000000000000000000000000000000000000000000000000815260040161177b9190612210565b60405180910390fd5b805181602001fd5b63150b7a0260e01b7bffffffffffffffffffffffffffffffffffffffffffffffffffffffff1916817bffffffffffffffffffffffffffffffffffffffffffffffffffffffff19161461181557836040517f64a0ae9200000000000000000000000000000000000000000000000000000000815260040161180c9190612210565b60405180910390fd5b505b5050505050565b611838828260405180602001604052806000815250611bec565b5050565b606060405180602001604052806000815250905090565b606061185e82611032565b50600061186961183c565b9050600081511161188957604051806020016040528060008152506118b4565b8061189384611c10565b6040516020016118a4929190612a6a565b6040516020818303038152906040525b915050919050565b60007f01ffc9a7000000000000000000000000000000000000000000000000000000007bffffffffffffffffffffffffffffffffffffffffffffffffffffffff1916827bffffffffffffffffffffffffffffffffffffffffffffffffffffffff1916149050919050565b60006002600083815260200190815260200160002060009054906101000a900473ffffffffffffffffffffffffffffffffffffffff169050919050565b808061199c5750600073ffffffffffffffffffffffffffffffffffffffff168273ffffffffffffffffffffffffffffffffffffffff1614155b15611ad05760006119ac84611032565b9050600073ffffffffffffffffffffffffffffffffffffffff168373ffffffffffffffffffffffffffffffffffffffff1614158015611a1757508273ffffffffffffffffffffffffffffffffffffffff168173ffffffffffffffffffffffffffffffffffffffff1614155b8015611a2a5750611a288184610e36565b155b15611a6c57826040517fa9fbf51f000000000000000000000000000000000000000000000000000000008152600401611a639190612210565b60405180910390fd5b8115611ace57838573ffffffffffffffffffffffffffffffffffffffff168273ffffffffffffffffffffffffffffffffffffffff167f8c5be1e5ebec7d5bd14f71427d1e84f3dd0314c0f7b2291e5b200ac8c7c3b92560405160405180910390a45b505b836004600085815260200190815260200160002060006101000a81548173ffffffffffffffffffffffffffffffffffffffff021916908373ffffffffffffffffffffffffffffffffffffffff16021790555050505050565b611b33838383611cde565b611be757600073ffffffffffffffffffffffffffffffffffffffff168373ffffffffffffffffffffffffffffffffffffffff1603611ba857806040517f7e273289000000000000000000000000000000000000000000000000000000008152600401611b9f9190612326565b60405180910390fd5b81816040517f177e802f000000000000000000000000000000000000000000000000000000008152600401611bde929190612b71565b60405180910390fd5b505050565b611bf68383611d9f565b611c0b611c016110f7565b600085858561166d565b505050565b606060006001611c1f84611e98565b01905060008167ffffffffffffffff811115611c3e57611c3d61242e565b5b6040519080825280601f01601f191660200182016040528015611c705781602001600182028036833780820191505090505b509050600082602001820190505b600115611cd3578080600190039150507f3031323334353637383961626364656600000000000000000000000000000000600a86061a8153600a8581611cc757611cc6612b9a565b5b04945060008503611c7e575b819350505050919050565b60008073ffffffffffffffffffffffffffffffffffffffff168373ffffffffffffffffffffffffffffffffffffffff1614158015611d9657508273ffffffffffffffffffffffffffffffffffffffff168473ffffffffffffffffffffffffffffffffffffffff161480611d575750611d568484610e36565b5b80611d9557508273ffffffffffffffffffffffffffffffffffffffff16611d7d836110ba565b73ffffffffffffffffffffffffffffffffffffffff16145b5b90509392505050565b600073ffffffffffffffffffffffffffffffffffffffff168273ffffffffffffffffffffffffffffffffffffffff1603611e115760006040517f64a0ae92000000000000000000000000000000000000000000000000000000008152600401611e089190612210565b60405180910390fd5b6000611e1f83836000611111565b9050600073ffffffffffffffffffffffffffffffffffffffff168173ffffffffffffffffffffffffffffffffffffffff1614611e935760006040517f73c6ac6e000000000000000000000000000000000000000000000000000000008152600401611e8a9190612210565b60405180910390fd5b505050565b600080600090507a184f03e93ff9f4daa797ed6e38ed64bf6a1f0100000000000000008310611ef6577a184f03e93ff9f4daa797ed6e38ed64bf6a1f0100000000000000008381611eec57611eeb612b9a565b5b0492506040810190505b6d04ee2d6d415b85acef81000000008310611f33576d04ee2d6d415b85acef81000000008381611f2957611f28612b9a565b5b0492506020810190505b662386f26fc100008310611f6257662386f26fc100008381611f5857611f57612b9a565b5b0492506010810190505b6305f5e1008310611f8b576305f5e1008381611f8157611f80612b9a565b5b0492506008810190505b6127108310611fb0576127108381611fa657611fa5612b9a565b5b0492506004810190505b60648310611fd35760648381611fc957611fc8612b9a565b5b0492506002810190505b600a8310611fe2576001810190505b80915050919050565b6000604051905090565b600080fd5b600080fd5b60007fffffffff0000000000000000000000000000000000000000000000000000000082169050919050565b61203481611fff565b811461203f57600080fd5b50565b6000813590506120518161202b565b92915050565b60006020828403121561206d5761206c611ff5565b5b600061207b84828501612042565b91505092915050565b60008115159050919050565b61209981612084565b82525050565b60006020820190506120b46000830184612090565b92915050565b600081519050919050565b600082825260208201905092915050565b60005b838110156120f45780820151818401526020810190506120d9565b60008484015250505050565b6000601f19601f8301169050919050565b600061211c826120ba565b61212681856120c5565b93506121368185602086016120d6565b61213f81612100565b840191505092915050565b600060208201905081810360008301526121648184612111565b905092915050565b6000819050919050565b61217f8161216c565b811461218a57600080fd5b50565b60008135905061219c81612176565b92915050565b6000602082840312156121b8576121b7611ff5565b5b60006121c68482850161218d565b91505092915050565b600073ffffffffffffffffffffffffffffffffffffffff82169050919050565b60006121fa826121cf565b9050919050565b61220a816121ef565b82525050565b60006020820190506122256000830184612201565b92915050565b612234816121ef565b811461223f57600080fd5b50565b6000813590506122518161222b565b92915050565b6000806040838503121561226e5761226d611ff5565b5b600061227c85828601612242565b925050602061228d8582860161218d565b9150509250929050565b6000806000606084860312156122b0576122af611ff5565b5b60006122be86828701612242565b93505060206122cf86828701612242565b92505060406122e08682870161218d565b9150509250925092565b600060208284031215612300576122ff611ff5565b5b600061230e84828501612242565b91505092915050565b6123208161216c565b82525050565b600060208201905061233b6000830184612317565b92915050565b6000806040838503121561235857612357611ff5565b5b60006123668582860161218d565b92505060206123778582860161218d565b9150509250929050565b60006060820190506123966000830186612317565b6123a36020830185612317565b6123b06040830184612090565b949350505050565b6123c181612084565b81146123cc57600080fd5b50565b6000813590506123de816123b8565b92915050565b600080604083850312156123fb576123fa611ff5565b5b600061240985828601612242565b925050602061241a858286016123cf565b9150509250929050565b600080fd5b600080fd5b7f4e487b7100000000000000000000000000000000000000000000000000000000600052604160045260246000fd5b61246682612100565b810181811067ffffffffffffffff821117156124855761248461242e565b5b80604052505050565b6000612498611feb565b90506124a4828261245d565b919050565b600067ffffffffffffffff8211156124c4576124c361242e565b5b6124cd82612100565b9050602081019050919050565b82818337600083830152505050565b60006124fc6124f7846124a9565b61248e565b90508281526020810184848401111561251857612517612429565b5b6125238482856124da565b509392505050565b600082601f8301126125405761253f612424565b5b81356125508482602086016124e9565b91505092915050565b6000806000806080858703121561257357612572611ff5565b5b600061258187828801612242565b945050602061259287828801612242565b93505060406125a38782880161218d565b925050606085013567ffffffffffffffff8111156125c4576125c3611ffa565b5b6125d08782880161252b565b91505092959194509250565b600080600080608085870312156125f6576125f5611ff5565b5b600061260487828801612242565b94505060206126158782880161218d565b93505060406126268782880161218d565b92505060606126378782880161218d565b91505092959194509250565b6000806040838503121561265a57612659611ff5565b5b600061266885828601612242565b925050602061267985828601612242565b9150509250929050565b7f4e487b7100000000000000000000000000000000000000000000000000000000600052602260045260246000fd5b600060028204905060018216806126ca57607f821691505b6020821081036126dd576126dc612683565b5b50919050565b60006060820190506126f86000830186612201565b6127056020830185612317565b6127126040830184612201565b949350505050565b7f4e6f74206f776e65720000000000000000000000000000000000000000000000600082015250565b60006127506009836120c5565b915061275b8261271a565b602082019050919050565b6000602082019050818103600083015261277f81612743565b9050919050565b7f416c72656164792066756c6c792072656465656d656400000000000000000000600082015250565b60006127bc6016836120c5565b91506127c782612786565b602082019050919050565b600060208201905081810360008301526127eb816127af565b9050919050565b7f4361726420657870697265640000000000000000000000000000000000000000600082015250565b6000612828600c836120c5565b9150612833826127f2565b602082019050919050565b600060208201905081810360008301526128578161281b565b9050919050565b7f496e73756666696369656e742062616c616e6365000000000000000000000000600082015250565b60006128946014836120c5565b915061289f8261285e565b602082019050919050565b600060208201905081810360008301526128c381612887565b9050919050565b7f4e487b7100000000000000000000000000000000000000000000000000000000600052601160045260246000fd5b60006129048261216c565b915061290f8361216c565b9250828203905081811115612927576129266128ca565b5b92915050565b7f4e6f742057616c6d6172742061646d696e000000000000000000000000000000600082015250565b60006129636011836120c5565b915061296e8261292d565b602082019050919050565b6000602082019050818103600083015261299281612956565b9050919050565b7f507265546f6b656e496420616c72656164792075736564000000000000000000600082015250565b60006129cf6017836120c5565b91506129da82612999565b602082019050919050565b600060208201905081810360008301526129fe816129c2565b9050919050565b6000604082019050612a1a6000830185612317565b612a276020830184612317565b9392505050565b600081905092915050565b6000612a44826120ba565b612a4e8185612a2e565b9350612a5e8185602086016120d6565b80840191505092915050565b6000612a768285612a39565b9150612a828284612a39565b91508190509392505050565b600081519050919050565b600082825260208201905092915050565b6000612ab582612a8e565b612abf8185612a99565b9350612acf8185602086016120d6565b612ad881612100565b840191505092915050565b6000608082019050612af86000830187612201565b612b056020830186612201565b612b126040830185612317565b8181036060830152612b248184612aaa565b905095945050505050565b600081519050612b3e8161202b565b92915050565b600060208284031215612b5a57612b59611ff5565b5b6000612b6884828501612b2f565b91505092915050565b6000604082019050612b866000830185612201565b612b936020830184612317565b9392505050565b7f4e487b7100000000000000000000000000000000000000000000000000000000600052601260045260246000fdfea26469706673582212206a39a2417516f074e0da88269f74f8b7714334435b4874299cb22c29b6e3cc2164736f6c63430008140033",
  "linkReferences": {},
  "deployedLinkReferences": {}
}