{
  "_format": "hh-sol-artifact-1",
  "contractName": "WalmartGiftCardNFT",
  "sourceName": "contracts/walmartgiftcardnft.sol",
  "abi": [
    {
      "inputs": [
        {
          "internalType": "address",
          "name": "_admin",
          "type": "address"
        },
        {
          "internalType": "address",
          "name": "_initialOwner",
          "type": "address"
        }
      ],
      "stateMutability": "nonpayable",
      "type": "constructor"
    },
    {
      "inputs": [
        {
          "internalType": "address",
          "name": "sender",
          "type": "address"
        },
        {
          "internalType": "uint256",
          "name": "tokenId",
          "type": "uint256"
        },
        {
          "internalType": "address",
          "name": "owner",
          "type": "address"
        }
      ],
      "name": "ERC721IncorrectOwner",
      "type": "error"
    },
    {
      "inputs": [
        {
          "internalType": "address",
          "name": "operator",
          "type": "address"
        },
        {
          "internalType": "uint256",
          "name": "tokenId",
          "type": "uint256"
        }
      ],
      "name": "ERC721InsufficientApproval",
      "type": "error"
    },
    {
      "inputs": [
        {
          "internalType": "address",
          "name": "approver",
          "type": "address"
        }
      ],
      "name": "ERC721InvalidApprover",
      "type": "error"
    },
    {
      "inputs": [
        {
          "internalType": "address",
          "name": "operator",
          "type": "address"
        }
      ],
      "name": "ERC721InvalidOperator",
      "type": "error"
    },
    {
      "inputs": [
        {
          "internalType": "address",
          "name": "owner",
          "type": "address"
        }
      ],
      "name": "ERC721InvalidOwner",
      "type": "error"
    },
    {
      "inputs": [
        {
          "internalType": "address",
          "name": "receiver",
          "type": "address"
        }
      ],
      "name": "ERC721InvalidReceiver",
      "type": "error"
    },
    {
      "inputs": [
        {
          "internalType": "address",
          "name": "sender",
          "type": "address"
        }
      ],
      "name": "ERC721InvalidSender",
      "type": "error"
    },
    {
      "inputs": [
        {
          "internalType": "uint256",
          "name": "tokenId",
          "type": "uint256"
        }
      ],
      "name": "ERC721NonexistentToken",
      "type": "error"
    },
    {
      "inputs": [
        {
          "internalType": "address",
          "name": "owner",
          "type": "address"
        }
      ],
      "name": "OwnableInvalidOwner",
      "type": "error"
    },
    {
      "inputs": [
        {
          "internalType": "address",
          "name": "account",
          "type": "address"
        }
      ],
      "name": "OwnableUnauthorizedAccount",
      "type": "error"
    },
    {
      "anonymous": false,
      "inputs": [
        {
          "indexed": true,
          "internalType": "address",
          "name": "owner",
          "type": "address"
        },
        {
          "indexed": true,
          "internalType": "address",
          "name": "approved",
          "type": "address"
        },
        {
          "indexed": true,
          "internalType": "uint256",
          "name": "tokenId",
          "type": "uint256"
        }
      ],
      "name": "Approval",
      "type": "event"
    },
    {
      "anonymous": false,
      "inputs": [
        {
          "indexed": true,
          "internalType": "address",
          "name": "owner",
          "type": "address"
        },
        {
          "indexed": true,
          "internalType": "address",
          "name": "operator",
          "type": "address"
        },
        {
          "indexed": false,
          "internalType": "bool",
          "name": "approved",
          "type": "bool"
        }
      ],
      "name": "ApprovalForAll",
      "type": "event"
    },
    {
      "anonymous": false,
      "inputs": [
        {
          "indexed": false,
          "internalType": "uint256",
          "name": "_fromTokenId",
          "type": "uint256"
        },
        {
          "indexed": false,
          "internalType": "uint256",
          "name": "_toTokenId",
          "type": "uint256"
        }
      ],
      "name": "BatchMetadataUpdate",
      "type": "event"
    },
    {
      "anonymous": false,
      "inputs": [
        {
          "indexed": true,
          "internalType": "address",
          "name": "to",
          "type": "address"
        },
        {
          "indexed": true,
          "internalType": "uint256",
          "name": "tokenId",
          "type": "uint256"
        },
        {
          "indexed": false,
          "internalType": "uint256",
          "name": "amount",
          "type": "uint256"
        },
        {
          "indexed": false,
          "internalType": "uint256",
          "name": "expiry",
          "type": "uint256"
        }
      ],
      "name": "GiftCardMinted",
      "type": "event"
    },
    {
      "anonymous": false,
      "inputs": [
        {
          "indexed": true,
          "internalType": "address",
          "name": "from",
          "type": "address"
        },
        {
          "indexed": true,
          "internalType": "uint256",
          "name": "tokenId",
          "type": "uint256"
        },
        {
          "indexed": false,
          "internalType": "uint256",
          "name": "amount",
          "type": "uint256"
        }
      ],
      "name": "GiftCardRedeemed",
      "type": "event"
    },
    {
      "anonymous": false,
      "inputs": [
        {
          "indexed": false,
          "internalType": "uint256",
          "name": "_tokenId",
          "type": "uint256"
        }
      ],
      "name": "MetadataUpdate",
      "type": "event"
    },
    {
      "anonymous": false,
      "inputs": [
        {
          "indexed": true,
          "internalType": "address",
          "name": "previousOwner",
          "type": "address"
        },
        {
          "indexed": true,
          "internalType": "address",
          "name": "newOwner",
          "type": "address"
        }
      ],
      "name": "OwnershipTransferred",
      "type": "event"
    },
    {
      "anonymous": false,
      "inputs": [
        {
          "indexed": true,
          "internalType": "address",
          "name": "from",
          "type": "address"
        },
        {
          "indexed": true,
          "internalType": "address",
          "name": "to",
          "type": "address"
        },
        {
          "indexed": true,
          "internalType": "uint256",
          "name": "tokenId",
          "type": "uint256"
        }
      ],
      "name": "Transfer",
      "type": "event"
    },
    {
      "inputs": [
        {
          "internalType": "address",
          "name": "to",
          "type": "address"
        },
        {
          "internalType": "uint256",
          "name": "tokenId",
          "type": "uint256"
        }
      ],
      "name": "approve",
      "outputs": [],
      "stateMutability": "nonpayable",
      "type": "function"
    },
    {
      "inputs": [
        {
          "internalType": "address",
          "name": "owner",
          "type": "address"
        }
      ],
      "name": "balanceOf",
      "outputs": [
        {
          "internalType": "uint256",
          "name": "",
          "type": "uint256"
        }
      ],
      "stateMutability": "view",
      "type": "function"
    },
    {
      "inputs": [
        {
          "internalType": "uint256",
          "name": "tokenId",
          "type": "uint256"
        }
      ],
      "name": "getApproved",
      "outputs": [
        {
          "internalType": "address",
          "name": "",
          "type": "address"
        }
      ],
      "stateMutability": "view",
      "type": "function"
    },
    {
      "inputs": [
        {
          "internalType": "uint256",
          "name": "",
          "type": "uint256"
        }
      ],
      "name": "giftCards",
      "outputs": [
        {
          "internalType": "uint256",
          "name": "balance",
          "type": "uint256"
        },
        {
          "internalType": "uint256",
          "name": "expiry",
          "type": "uint256"
        },
        {
          "internalType": "bool",
          "name": "redeemed",
          "type": "bool"
        },
        {
          "internalType": "address",
          "name": "originalOwner",
          "type": "address"
        }
      ],
      "stateMutability": "view",
      "type": "function"
    },
    {
      "inputs": [
        {
          "internalType": "address",
          "name": "owner",
          "type": "address"
        },
        {
          "internalType": "address",
          "name": "operator",
          "type": "address"
        }
      ],
      "name": "isApprovedForAll",
      "outputs": [
        {
          "internalType": "bool",
          "name": "",
          "type": "bool"
        }
      ],
      "stateMutability": "view",
      "type": "function"
    },
    {
      "inputs": [
        {
          "internalType": "address",
          "name": "to",
          "type": "address"
        },
        {
          "internalType": "uint256",
          "name": "preTokenId",
          "type": "uint256"
        },
        {
          "internalType": "uint256",
          "name": "amount",
          "type": "uint256"
        },
        {
          "internalType": "uint256",
          "name": "expiry",
          "type": "uint256"
        }
      ],
      "name": "mintNFT",
      "outputs": [],
      "stateMutability": "nonpayable",
      "type": "function"
    },
    {
      "inputs": [],
      "name": "name",
      "outputs": [
        {
          "internalType": "string",
          "name": "",
          "type": "string"
        }
      ],
      "stateMutability": "view",
      "type": "function"
    },
    {
      "inputs": [],
      "name": "owner",
      "outputs": [
        {
          "internalType": "address",
          "name": "",
          "type": "address"
        }
      ],
      "stateMutability": "view",
      "type": "function"
    },
    {
      "inputs": [
        {
          "internalType": "uint256",
          "name": "tokenId",
          "type": "uint256"
        }
      ],
      "name": "ownerOf",
      "outputs": [
        {
          "internalType": "address",
          "name": "",
          "type": "address"
        }
      ],
      "stateMutability": "view",
      "type": "function"
    },
    {
      "inputs": [
        {
          "internalType": "uint256",
          "name": "tokenId",
          "type": "uint256"
        },
        {
          "internalType": "uint256",
          "name": "amount",
          "type": "uint256"
        }
      ],
      "name": "redeem",
      "outputs": [],
      "stateMutability": "nonpayable",
      "type": "function"
    },
    {
      "inputs": [],
      "name": "renounceOwnership",
      "outputs": [],
      "stateMutability": "nonpayable",
      "type": "function"
    },
    {
      "inputs": [
        {
          "internalType": "address",
          "name": "from",
          "type": "address"
        },
        {
          "internalType": "address",
          "name": "to",
          "type": "address"
        },
        {
          "internalType": "uint256",
          "name": "tokenId",
          "type": "uint256"
        }
      ],
      "name": "safeTransferFrom",
      "outputs": [],
      "stateMutability": "nonpayable",
      "type": "function"
    },
    {
      "inputs": [
        {
          "internalType": "address",
          "name": "from",
          "type": "address"
        },
        {
          "internalType": "address",
          "name": "to",
          "type": "address"
        },
        {
          "internalType": "uint256",
          "name": "tokenId",
          "type": "uint256"
        },
        {
          "internalType": "bytes",
          "name": "data",
          "type": "bytes"
        }
      ],
      "name": "safeTransferFrom",
      "outputs": [],
      "stateMutability": "nonpayable",
      "type": "function"
    },
    {
      "inputs": [
        {
          "internalType": "address",
          "name": "_admin",
          "type": "address"
        }
      ],
      "name": "setAdmin",
      "outputs": [],
      "stateMutability": "nonpayable",
      "type": "function"
    },
    {
      "inputs": [
        {
          "internalType": "address",
          "name": "operator",
          "type": "address"
        },
        {
          "internalType": "bool",
          "name": "approved",
          "type": "bool"
        }
      ],
      "name": "setApprovalForAll",
      "outputs": [],
      "stateMutability": "nonpayable",
      "type": "function"
    },
    {
      "inputs": [
        {
          "internalType": "bytes4",
          "name": "interfaceId",
          "type": "bytes4"
        }
      ],
      "name": "supportsInterface",
      "outputs": [
        {
          "internalType": "bool",
          "name": "",
          "type": "bool"
        }
      ],
      "stateMutability": "view",
      "type": "function"
    },
    {
      "inputs": [],
      "name": "symbol",
      "outputs": [
        {
          "internalType": "string",
          "name": "",
          "type": "string"
        }
      ],
      "stateMutability": "view",
      "type": "function"
    },
    {
      "inputs": [
        {
          "internalType": "uint256",
          "name": "tokenId",
          "type": "uint256"
        }
      ],
      "name": "tokenURI",
      "outputs": [
        {
          "internalType": "string",
          "name": "",
          "type": "string"
        }
      ],
      "stateMutability": "view",
      "type": "function"
    },
    {
      "inputs": [
        {
          "internalType": "address",
          "name": "from",
          "type": "address"
        },
        {
          "internalType": "address",
          "name": "to",
          "type": "address"
        },
        {
          "internalType": "uint256",
          "name": "tokenId",
          "type": "uint256"
        }
      ],
      "name": "transferFrom",
      "outputs": [],
      "stateMutability": "nonpayable",
      "type": "function"
    },
    {
      "inputs": [
        {
          "internalType": "address",
          "name": "newOwner",
          "type": "address"
        }
      ],
      "name": "transferOwnership",
      "outputs": [],
      "stateMutability": "nonpayable",
      "type": "function"
    },
    {
      "inputs": [
        {
          "internalType": "uint256",
          "name": "",
          "type": "uint256"
        }
      ],
      "name": "usedPreTokenIds",
      "outputs": [
        {
          "internalType": "bool",
          "name": "",
          "type": "bool"
        }
      ],
      "stateMutability": "view",
      "type": "function"
    },
    {
      "inputs": [],
      "name": "walmartAdmin",
      "outputs": [
        {
          "internalType": "address",
          "name": "",
          "type": "address"
        }
      ],
      "stateMutability": "view",
      "type": "function"
    }
  ],
  "bytecode": "0x60806040523480156200001157600080fd5b5060405162003445380380620034458339818101604052810190620000379190620002ca565b806040518060400160405280600f81526020017f57616c6d617274476966744361726400000000000000000000000000000000008152506040518060400160405280600381526020017f57474300000000000000000000000000000000000000000000000000000000008152508160009081620000b591906200058b565b508060019081620000c791906200058b565b505050600073ffffffffffffffffffffffffffffffffffffffff168173ffffffffffffffffffffffffffffffffffffffff16036200013f5760006040517f1e4fbdf700000000000000000000000000000000000000000000000000000000815260040162000136919062000683565b60405180910390fd5b62000150816200019a60201b60201c565b5081600a60006101000a81548173ffffffffffffffffffffffffffffffffffffffff021916908373ffffffffffffffffffffffffffffffffffffffff1602179055505050620006a0565b6000600760009054906101000a900473ffffffffffffffffffffffffffffffffffffffff16905081600760006101000a81548173ffffffffffffffffffffffffffffffffffffffff021916908373ffffffffffffffffffffffffffffffffffffffff1602179055508173ffffffffffffffffffffffffffffffffffffffff168173ffffffffffffffffffffffffffffffffffffffff167f8be0079c531659141344cd1fd0a4f28419497f9722a3daafe3b4186f6b6457e060405160405180910390a35050565b600080fd5b600073ffffffffffffffffffffffffffffffffffffffff82169050919050565b6000620002928262000265565b9050919050565b620002a48162000285565b8114620002b057600080fd5b50565b600081519050620002c48162000299565b92915050565b60008060408385031215620002e457620002e362000260565b5b6000620002f485828601620002b3565b92505060206200030785828601620002b3565b9150509250929050565b600081519050919050565b7f4e487b7100000000000000000000000000000000000000000000000000000000600052604160045260246000fd5b7f4e487b7100000000000000000000000000000000000000000000000000000000600052602260045260246000fd5b600060028204905060018216806200039357607f821691505b602082108103620003a957620003a86200034b565b5b50919050565b60008190508160005260206000209050919050565b60006020601f8301049050919050565b600082821b905092915050565b600060088302620004137fffffffffffffffffffffffffffffffffffffffffffffffffffffffffffffffff82620003d4565b6200041f8683620003d4565b95508019841693508086168417925050509392505050565b6000819050919050565b6000819050919050565b60006200046c62000466620004608462000437565b62000441565b62000437565b9050919050565b6000819050919050565b62000488836200044b565b620004a0620004978262000473565b848454620003e1565b825550505050565b600090565b620004b7620004a8565b620004c48184846200047d565b505050565b5b81811015620004ec57620004e0600082620004ad565b600181019050620004ca565b5050565b601f8211156200053b576200050581620003af565b6200051084620003c4565b8101602085101562000520578190505b620005386200052f85620003c4565b830182620004c9565b50505b505050565b600082821c905092915050565b6000620005606000198460080262000540565b1980831691505092915050565b60006200057b83836200054d565b9150826002028217905092915050565b620005968262000311565b67ffffffffffffffff811115620005b257620005b16200031c565b5b620005be82546200037a565b620005cb828285620004f0565b600060209050601f831160018114620006035760008415620005ee578287015190505b620005fa85826200056d565b8655506200066a565b601f1984166200061386620003af565b60005b828110156200063d5784890151825560018201915060208501945060208101905062000616565b868310156200065d578489015162000659601f8916826200054d565b8355505b6001600288020188555050505b505050505050565b6200067d8162000285565b82525050565b60006020820190506200069a600083018462000672565b92915050565b612d9580620006b06000396000f3fe608060405234801561001057600080fd5b50600436106101425760003560e01c8063715018a6116100b8578063a22cb4651161007c578063a22cb46514610378578063b88d4fde14610394578063bcee96af146103b0578063c87b56dd146103cc578063e985e9c5146103fc578063f2fde38b1461042c57610142565b8063715018a6146102e35780637cbc2373146102ed5780638da5cb5b1461030957806395d89b41146103275780639898135f1461034557610142565b8063102bdbb01161010a578063102bdbb0146101ff57806323b872dd1461022f57806342842e0e1461024b5780636352211e14610267578063704b6c021461029757806370a08231146102b357610142565b806301ffc9a71461014757806306fdde0314610177578063081812fc14610195578063095ea7b3146101c55780630a27cd43146101e1575b600080fd5b610161600480360381019061015c9190612173565b610448565b60405161016e91906121bb565b60405180910390f35b61017f6104a9565b60405161018c9190612266565b60405180910390f35b6101af60048036038101906101aa91906122be565b61053b565b6040516101bc919061232c565b60405180910390f35b6101df60048036038101906101da9190612373565b610557565b005b6101e961056d565b6040516101f6919061232c565b60405180910390f35b610219600480360381019061021491906122be565b610593565b60405161022691906121bb565b60405180910390f35b610249600480360381019061024491906123b3565b6105b3565b005b610265600480360381019061026091906123b3565b6106b5565b005b610281600480360381019061027c91906122be565b6106d5565b60405161028e919061232c565b60405180910390f35b6102b160048036038101906102ac9190612406565b6106e7565b005b6102cd60048036038101906102c89190612406565b610733565b6040516102da9190612442565b60405180910390f35b6102eb6107ed565b005b6103076004803603810190610302919061245d565b610801565b005b610311610aa2565b60405161031e919061232c565b60405180910390f35b61032f610acc565b60405161033c9190612266565b60405180910390f35b61035f600480360381019061035a91906122be565b610b5e565b60405161036f949392919061249d565b60405180910390f35b610392600480360381019061038d919061250e565b610bbb565b005b6103ae60048036038101906103a99190612683565b610bd1565b005b6103ca60048036038101906103c59190612706565b610bf6565b005b6103e660048036038101906103e191906122be565b610e3f565b6040516103f39190612266565b60405180910390f35b6104166004803603810190610411919061276d565b610f52565b60405161042391906121bb565b60405180910390f35b61044660048036038101906104419190612406565b610fe6565b005b6000634906490660e01b7bffffffffffffffffffffffffffffffffffffffffffffffffffffffff1916827bffffffffffffffffffffffffffffffffffffffffffffffffffffffff191614806104a257506104a18261106c565b5b9050919050565b6060600080546104b8906127dc565b80601f01602080910402602001604051908101604052809291908181526020018280546104e4906127dc565b80156105315780601f1061050657610100808354040283529160200191610531565b820191906000526020600020905b81548152906001019060200180831161051457829003601f168201915b5050505050905090565b60006105468261114e565b50610550826111d6565b9050919050565b6105698282610564611213565b61121b565b5050565b600a60009054906101000a900473ffffffffffffffffffffffffffffffffffffffff1681565b60096020528060005260406000206000915054906101000a900460ff1681565b600073ffffffffffffffffffffffffffffffffffffffff168273ffffffffffffffffffffffffffffffffffffffff16036106255760006040517f64a0ae9200000000000000000000000000000000000000000000000000000000815260040161061c919061232c565b60405180910390fd5b60006106398383610634611213565b61122d565b90508373ffffffffffffffffffffffffffffffffffffffff168173ffffffffffffffffffffffffffffffffffffffff16146106af578382826040517f64283d7b0000000000000000000000000000000000000000000000000000000081526004016106a69392919061280d565b60405180910390fd5b50505050565b6106d083838360405180602001604052806000815250610bd1565b505050565b60006106e08261114e565b9050919050565b6106ef611447565b80600a60006101000a81548173ffffffffffffffffffffffffffffffffffffffff021916908373ffffffffffffffffffffffffffffffffffffffff16021790555050565b60008073ffffffffffffffffffffffffffffffffffffffff168273ffffffffffffffffffffffffffffffffffffffff16036107a65760006040517f89c62b6400000000000000000000000000000000000000000000000000000000815260040161079d919061232c565b60405180910390fd5b600360008373ffffffffffffffffffffffffffffffffffffffff1673ffffffffffffffffffffffffffffffffffffffff168152602001908152602001600020549050919050565b6107f5611447565b6107ff60006114ce565b565b3373ffffffffffffffffffffffffffffffffffffffff16610821836106d5565b73ffffffffffffffffffffffffffffffffffffffff1614610877576040517f08c379a000000000000000000000000000000000000000000000000000000000815260040161086e90612890565b60405180910390fd5b60006008600084815260200190815260200160002090503373ffffffffffffffffffffffffffffffffffffffff168160020160019054906101000a900473ffffffffffffffffffffffffffffffffffffffff1673ffffffffffffffffffffffffffffffffffffffff1614610920576040517f08c379a0000000000000000000000000000000000000000000000000000000008152600401610917906128fc565b60405180910390fd5b8060020160009054906101000a900460ff1615610972576040517f08c379a000000000000000000000000000000000000000000000000000000000815260040161096990612968565b60405180910390fd5b80600101544211156109b9576040517f08c379a00000000000000000000000000000000000000000000000000000000081526004016109b0906129d4565b60405180910390fd5b8181600001541015610a00576040517f08c379a00000000000000000000000000000000000000000000000000000000081526004016109f790612a40565b60405180910390fd5b81816000016000828254610a149190612a8f565b925050819055506000816000015403610a4e5760018160020160006101000a81548160ff021916908315150217905550610a4d83611594565b5b823373ffffffffffffffffffffffffffffffffffffffff167ff978dc690a9d2f49045ceab871c81a658fc08e852b13eee6d1d30eeaa7f15ff384604051610a959190612442565b60405180910390a3505050565b6000600760009054906101000a900473ffffffffffffffffffffffffffffffffffffffff16905090565b606060018054610adb906127dc565b80601f0160208091040260200160405190810160405280929190818152602001828054610b07906127dc565b8015610b545780601f10610b2957610100808354040283529160200191610b54565b820191906000526020600020905b815481529060010190602001808311610b3757829003601f168201915b5050505050905090565b60086020528060005260406000206000915090508060000154908060010154908060020160009054906101000a900460ff16908060020160019054906101000a900473ffffffffffffffffffffffffffffffffffffffff16905084565b610bcd610bc6611213565b838361161a565b5050565b610bdc8484846105b3565b610bf0610be7611213565b85858585611789565b50505050565b600a60009054906101000a900473ffffffffffffffffffffffffffffffffffffffff1673ffffffffffffffffffffffffffffffffffffffff163373ffffffffffffffffffffffffffffffffffffffff1614610c86576040517f08c379a0000000000000000000000000000000000000000000000000000000008152600401610c7d90612b0f565b60405180910390fd5b6009600084815260200190815260200160002060009054906101000a900460ff1615610ce7576040517f08c379a0000000000000000000000000000000000000000000000000000000008152600401610cde90612b7b565b60405180910390fd5b60016009600085815260200190815260200160002060006101000a81548160ff021916908315150217905550610d1d848461193a565b60405180608001604052808381526020018281526020016000151581526020018573ffffffffffffffffffffffffffffffffffffffff1681525060086000858152602001908152602001600020600082015181600001556020820151816001015560408201518160020160006101000a81548160ff02191690831515021790555060608201518160020160016101000a81548173ffffffffffffffffffffffffffffffffffffffff021916908373ffffffffffffffffffffffffffffffffffffffff160217905550905050828473ffffffffffffffffffffffffffffffffffffffff167f3c46d6abd8ba1bd8c7ac6f819af528001e5f0032ae7c720cf30ccac1b7d14c778484604051610e31929190612b9b565b60405180910390a350505050565b6060610e4a8261114e565b506000600660008481526020019081526020016000208054610e6b906127dc565b80601f0160208091040260200160405190810160405280929190818152602001828054610e97906127dc565b8015610ee45780601f10610eb957610100808354040283529160200191610ee4565b820191906000526020600020905b815481529060010190602001808311610ec757829003601f168201915b505050505090506000610ef5611958565b90506000815103610f0a578192505050610f4d565b600082511115610f3f578082604051602001610f27929190612c00565b60405160208183030381529060405292505050610f4d565b610f488461196f565b925050505b919050565b6000600560008473ffffffffffffffffffffffffffffffffffffffff1673ffffffffffffffffffffffffffffffffffffffff16815260200190815260200160002060008373ffffffffffffffffffffffffffffffffffffffff1673ffffffffffffffffffffffffffffffffffffffff16815260200190815260200160002060009054906101000a900460ff16905092915050565b610fee611447565b600073ffffffffffffffffffffffffffffffffffffffff168173ffffffffffffffffffffffffffffffffffffffff16036110605760006040517f1e4fbdf7000000000000000000000000000000000000000000000000000000008152600401611057919061232c565b60405180910390fd5b611069816114ce565b50565b60007f80ac58cd000000000000000000000000000000000000000000000000000000007bffffffffffffffffffffffffffffffffffffffffffffffffffffffff1916827bffffffffffffffffffffffffffffffffffffffffffffffffffffffff1916148061113757507f5b5e139f000000000000000000000000000000000000000000000000000000007bffffffffffffffffffffffffffffffffffffffffffffffffffffffff1916827bffffffffffffffffffffffffffffffffffffffffffffffffffffffff1916145b806111475750611146826119d8565b5b9050919050565b60008061115a83611a42565b9050600073ffffffffffffffffffffffffffffffffffffffff168173ffffffffffffffffffffffffffffffffffffffff16036111cd57826040517f7e2732890000000000000000000000000000000000000000000000000000000081526004016111c49190612442565b60405180910390fd5b80915050919050565b60006004600083815260200190815260200160002060009054906101000a900473ffffffffffffffffffffffffffffffffffffffff169050919050565b600033905090565b6112288383836001611a7f565b505050565b60008061123984611a42565b9050600073ffffffffffffffffffffffffffffffffffffffff168373ffffffffffffffffffffffffffffffffffffffff161461127b5761127a818486611c44565b5b600073ffffffffffffffffffffffffffffffffffffffff168173ffffffffffffffffffffffffffffffffffffffff161461130c576112bd600085600080611a7f565b6001600360008373ffffffffffffffffffffffffffffffffffffffff1673ffffffffffffffffffffffffffffffffffffffff168152602001908152602001600020600082825403925050819055505b600073ffffffffffffffffffffffffffffffffffffffff168573ffffffffffffffffffffffffffffffffffffffff161461138f576001600360008773ffffffffffffffffffffffffffffffffffffffff1673ffffffffffffffffffffffffffffffffffffffff168152602001908152602001600020600082825401925050819055505b846002600086815260200190815260200160002060006101000a81548173ffffffffffffffffffffffffffffffffffffffff021916908373ffffffffffffffffffffffffffffffffffffffff160217905550838573ffffffffffffffffffffffffffffffffffffffff168273ffffffffffffffffffffffffffffffffffffffff167fddf252ad1be2c89b69c2b068fc378daa952ba7f163c4a11628f55a4df523b3ef60405160405180910390a4809150509392505050565b61144f611213565b73ffffffffffffffffffffffffffffffffffffffff1661146d610aa2565b73ffffffffffffffffffffffffffffffffffffffff16146114cc57611490611213565b6040517f118cdaa70000000000000000000000000000000000000000000000000000000081526004016114c3919061232c565b60405180910390fd5b565b6000600760009054906101000a900473ffffffffffffffffffffffffffffffffffffffff16905081600760006101000a81548173ffffffffffffffffffffffffffffffffffffffff021916908373ffffffffffffffffffffffffffffffffffffffff1602179055508173ffffffffffffffffffffffffffffffffffffffff168173ffffffffffffffffffffffffffffffffffffffff167f8be0079c531659141344cd1fd0a4f28419497f9722a3daafe3b4186f6b6457e060405160405180910390a35050565b60006115a3600083600061122d565b9050600073ffffffffffffffffffffffffffffffffffffffff168173ffffffffffffffffffffffffffffffffffffffff160361161657816040517f7e27328900000000000000000000000000000000000000000000000000000000815260040161160d9190612442565b60405180910390fd5b5050565b600073ffffffffffffffffffffffffffffffffffffffff168273ffffffffffffffffffffffffffffffffffffffff160361168b57816040517f5b08ba18000000000000000000000000000000000000000000000000000000008152600401611682919061232c565b60405180910390fd5b80600560008573ffffffffffffffffffffffffffffffffffffffff1673ffffffffffffffffffffffffffffffffffffffff16815260200190815260200160002060008473ffffffffffffffffffffffffffffffffffffffff1673ffffffffffffffffffffffffffffffffffffffff16815260200190815260200160002060006101000a81548160ff0219169083151502179055508173ffffffffffffffffffffffffffffffffffffffff168373ffffffffffffffffffffffffffffffffffffffff167f17307eab39ab6107e8899845ad3d59bd9653f200f220920489ca2b5937696c318360405161177c91906121bb565b60405180910390a3505050565b60008373ffffffffffffffffffffffffffffffffffffffff163b1115611933578273ffffffffffffffffffffffffffffffffffffffff1663150b7a02868685856040518563ffffffff1660e01b81526004016117e89493929190612c79565b6020604051808303816000875af192505050801561182457506040513d601f19601f820116820180604052508101906118219190612cda565b60015b6118a8573d8060008114611854576040519150601f19603f3d011682016040523d82523d6000602084013e611859565b606091505b5060008151036118a057836040517f64a0ae92000000000000000000000000000000000000000000000000000000008152600401611897919061232c565b60405180910390fd5b805181602001fd5b63150b7a0260e01b7bffffffffffffffffffffffffffffffffffffffffffffffffffffffff1916817bffffffffffffffffffffffffffffffffffffffffffffffffffffffff19161461193157836040517f64a0ae92000000000000000000000000000000000000000000000000000000008152600401611928919061232c565b60405180910390fd5b505b5050505050565b611954828260405180602001604052806000815250611d08565b5050565b606060405180602001604052806000815250905090565b606061197a8261114e565b506000611985611958565b905060008151116119a557604051806020016040528060008152506119d0565b806119af84611d2c565b6040516020016119c0929190612c00565b6040516020818303038152906040525b915050919050565b60007f01ffc9a7000000000000000000000000000000000000000000000000000000007bffffffffffffffffffffffffffffffffffffffffffffffffffffffff1916827bffffffffffffffffffffffffffffffffffffffffffffffffffffffff1916149050919050565b60006002600083815260200190815260200160002060009054906101000a900473ffffffffffffffffffffffffffffffffffffffff169050919050565b8080611ab85750600073ffffffffffffffffffffffffffffffffffffffff168273ffffffffffffffffffffffffffffffffffffffff1614155b15611bec576000611ac88461114e565b9050600073ffffffffffffffffffffffffffffffffffffffff168373ffffffffffffffffffffffffffffffffffffffff1614158015611b3357508273ffffffffffffffffffffffffffffffffffffffff168173ffffffffffffffffffffffffffffffffffffffff1614155b8015611b465750611b448184610f52565b155b15611b8857826040517fa9fbf51f000000000000000000000000000000000000000000000000000000008152600401611b7f919061232c565b60405180910390fd5b8115611bea57838573ffffffffffffffffffffffffffffffffffffffff168273ffffffffffffffffffffffffffffffffffffffff167f8c5be1e5ebec7d5bd14f71427d1e84f3dd0314c0f7b2291e5b200ac8c7c3b92560405160405180910390a45b505b836004600085815260200190815260200160002060006101000a81548173ffffffffffffffffffffffffffffffffffffffff021916908373ffffffffffffffffffffffffffffffffffffffff16021790555050505050565b611c4f838383611dfa565b611d0357600073ffffffffffffffffffffffffffffffffffffffff168373ffffffffffffffffffffffffffffffffffffffff1603611cc457806040517f7e273289000000000000000000000000000000000000000000000000000000008152600401611cbb9190612442565b60405180910390fd5b81816040517f177e802f000000000000000000000000000000000000000000000000000000008152600401611cfa929190612d07565b60405180910390fd5b505050565b611d128383611ebb565b611d27611d1d611213565b6000858585611789565b505050565b606060006001611d3b84611fb4565b01905060008167ffffffffffffffff811115611d5a57611d59612558565b5b6040519080825280601f01601f191660200182016040528015611d8c5781602001600182028036833780820191505090505b509050600082602001820190505b600115611def578080600190039150507f3031323334353637383961626364656600000000000000000000000000000000600a86061a8153600a8581611de357611de2612d30565b5b04945060008503611d9a575b819350505050919050565b60008073ffffffffffffffffffffffffffffffffffffffff168373ffffffffffffffffffffffffffffffffffffffff1614158015611eb257508273ffffffffffffffffffffffffffffffffffffffff168473ffffffffffffffffffffffffffffffffffffffff161480611e735750611e728484610f52565b5b80611eb157508273ffffffffffffffffffffffffffffffffffffffff16611e99836111d6565b73ffffffffffffffffffffffffffffffffffffffff16145b5b90509392505050565b600073ffffffffffffffffffffffffffffffffffffffff168273ffffffffffffffffffffffffffffffffffffffff1603611f2d5760006040517f64a0ae92000000000000000000000000000000000000000000000000000000008152600401611f24919061232c565b60405180910390fd5b6000611f3b8383600061122d565b9050600073ffffffffffffffffffffffffffffffffffffffff168173ffffffffffffffffffffffffffffffffffffffff1614611faf5760006040517f73c6ac6e000000000000000000000000000000000000000000000000000000008152600401611fa6919061232c565b60405180910390fd5b505050565b600080600090507a184f03e93ff9f4daa797ed6e38ed64bf6a1f0100000000000000008310612012577a184f03e93ff9f4daa797ed6e38ed64bf6a1f010000000000000000838161200857612007612d30565b5b0492506040810190505b6d04ee2d6d415b85acef8100000000831061204f576d04ee2d6d415b85acef8100000000838161204557612044612d30565b5b0492506020810190505b662386f26fc10000831061207e57662386f26fc10000838161207457612073612d30565b5b0492506010810190505b6305f5e10083106120a7576305f5e100838161209d5761209c612d30565b5b0492506008810190505b61271083106120cc5761271083816120c2576120c1612d30565b5b0492506004810190505b606483106120ef57606483816120e5576120e4612d30565b5b0492506002810190505b600a83106120fe576001810190505b80915050919050565b6000604051905090565b600080fd5b600080fd5b60007fffffffff0000000000000000000000000000000000000000000000000000000082169050919050565b6121508161211b565b811461215b57600080fd5b50565b60008135905061216d81612147565b92915050565b60006020828403121561218957612188612111565b5b60006121978482850161215e565b91505092915050565b60008115159050919050565b6121b5816121a0565b82525050565b60006020820190506121d060008301846121ac565b92915050565b600081519050919050565b600082825260208201905092915050565b60005b838110156122105780820151818401526020810190506121f5565b60008484015250505050565b6000601f19601f8301169050919050565b6000612238826121d6565b61224281856121e1565b93506122528185602086016121f2565b61225b8161221c565b840191505092915050565b60006020820190508181036000830152612280818461222d565b905092915050565b6000819050919050565b61229b81612288565b81146122a657600080fd5b50565b6000813590506122b881612292565b92915050565b6000602082840312156122d4576122d3612111565b5b60006122e2848285016122a9565b91505092915050565b600073ffffffffffffffffffffffffffffffffffffffff82169050919050565b6000612316826122eb565b9050919050565b6123268161230b565b82525050565b6000602082019050612341600083018461231d565b92915050565b6123508161230b565b811461235b57600080fd5b50565b60008135905061236d81612347565b92915050565b6000806040838503121561238a57612389612111565b5b60006123988582860161235e565b92505060206123a9858286016122a9565b9150509250929050565b6000806000606084860312156123cc576123cb612111565b5b60006123da8682870161235e565b93505060206123eb8682870161235e565b92505060406123fc868287016122a9565b9150509250925092565b60006020828403121561241c5761241b612111565b5b600061242a8482850161235e565b91505092915050565b61243c81612288565b82525050565b60006020820190506124576000830184612433565b92915050565b6000806040838503121561247457612473612111565b5b6000612482858286016122a9565b9250506020612493858286016122a9565b9150509250929050565b60006080820190506124b26000830187612433565b6124bf6020830186612433565b6124cc60408301856121ac565b6124d9606083018461231d565b95945050505050565b6124eb816121a0565b81146124f657600080fd5b50565b600081359050612508816124e2565b92915050565b6000806040838503121561252557612524612111565b5b60006125338582860161235e565b9250506020612544858286016124f9565b9150509250929050565b600080fd5b600080fd5b7f4e487b7100000000000000000000000000000000000000000000000000000000600052604160045260246000fd5b6125908261221c565b810181811067ffffffffffffffff821117156125af576125ae612558565b5b80604052505050565b60006125c2612107565b90506125ce8282612587565b919050565b600067ffffffffffffffff8211156125ee576125ed612558565b5b6125f78261221c565b9050602081019050919050565b82818337600083830152505050565b6000612626612621846125d3565b6125b8565b90508281526020810184848401111561264257612641612553565b5b61264d848285612604565b509392505050565b600082601f83011261266a5761266961254e565b5b813561267a848260208601612613565b91505092915050565b6000806000806080858703121561269d5761269c612111565b5b60006126ab8782880161235e565b94505060206126bc8782880161235e565b93505060406126cd878288016122a9565b925050606085013567ffffffffffffffff8111156126ee576126ed612116565b5b6126fa87828801612655565b91505092959194509250565b600080600080608085870312156127205761271f612111565b5b600061272e8782880161235e565b945050602061273f878288016122a9565b9350506040612750878288016122a9565b9250506060612761878288016122a9565b91505092959194509250565b6000806040838503121561278457612783612111565b5b60006127928582860161235e565b92505060206127a38582860161235e565b9150509250929050565b7f4e487b7100000000000000000000000000000000000000000000000000000000600052602260045260246000fd5b600060028204905060018216806127f457607f821691505b602082108103612807576128066127ad565b5b50919050565b6000606082019050612822600083018661231d565b61282f6020830185612433565b61283c604083018461231d565b949350505050565b7f4e6f742063757272656e74206f776e6572000000000000000000000000000000600082015250565b600061287a6011836121e1565b915061288582612844565b602082019050919050565b600060208201905081810360008301526128a98161286d565b9050919050565b7f4e6f74206f726967696e616c20726563697069656e7400000000000000000000600082015250565b60006128e66016836121e1565b91506128f1826128b0565b602082019050919050565b60006020820190508181036000830152612915816128d9565b9050919050565b7f416c72656164792066756c6c792072656465656d656400000000000000000000600082015250565b60006129526016836121e1565b915061295d8261291c565b602082019050919050565b6000602082019050818103600083015261298181612945565b9050919050565b7f4361726420657870697265640000000000000000000000000000000000000000600082015250565b60006129be600c836121e1565b91506129c982612988565b602082019050919050565b600060208201905081810360008301526129ed816129b1565b9050919050565b7f496e73756666696369656e742062616c616e6365000000000000000000000000600082015250565b6000612a2a6014836121e1565b9150612a35826129f4565b602082019050919050565b60006020820190508181036000830152612a5981612a1d565b9050919050565b7f4e487b7100000000000000000000000000000000000000000000000000000000600052601160045260246000fd5b6000612a9a82612288565b9150612aa583612288565b9250828203905081811115612abd57612abc612a60565b5b92915050565b7f4e6f742057616c6d6172742061646d696e000000000000000000000000000000600082015250565b6000612af96011836121e1565b9150612b0482612ac3565b602082019050919050565b60006020820190508181036000830152612b2881612aec565b9050919050565b7f507265546f6b656e496420616c72656164792075736564000000000000000000600082015250565b6000612b656017836121e1565b9150612b7082612b2f565b602082019050919050565b60006020820190508181036000830152612b9481612b58565b9050919050565b6000604082019050612bb06000830185612433565b612bbd6020830184612433565b9392505050565b600081905092915050565b6000612bda826121d6565b612be48185612bc4565b9350612bf48185602086016121f2565b80840191505092915050565b6000612c0c8285612bcf565b9150612c188284612bcf565b91508190509392505050565b600081519050919050565b600082825260208201905092915050565b6000612c4b82612c24565b612c558185612c2f565b9350612c658185602086016121f2565b612c6e8161221c565b840191505092915050565b6000608082019050612c8e600083018761231d565b612c9b602083018661231d565b612ca86040830185612433565b8181036060830152612cba8184612c40565b905095945050505050565b600081519050612cd481612147565b92915050565b600060208284031215612cf057612cef612111565b5b6000612cfe84828501612cc5565b91505092915050565b6000604082019050612d1c600083018561231d565b612d296020830184612433565b9392505050565b7f4e487b7100000000000000000000000000000000000000000000000000000000600052601260045260246000fdfea26469706673582212207c1f4410600c9f377ef98689b97cdc4b3b06ac26fdc568e1ee0c6778c89d442064736f6c63430008140033",
  "linkReferences": {},
  "deployedLinkReferences": {}
}